{
  "contractName": "AuditTraceability",
  "abi": [
    {
      "anonymous": false,
      "inputs": [
        {
          "indexed": false,
          "internalType": "uint256",
          "name": "id",
          "type": "uint256"
        },
        {
          "indexed": false,
          "internalType": "string",
          "name": "date",
          "type": "string"
        },
        {
          "indexed": false,
          "internalType": "string",
          "name": "reportHash",
          "type": "string"
        },
        {
          "indexed": false,
          "internalType": "address",
          "name": "auditor",
          "type": "address"
        }
      ],
      "name": "ReportCertified",
      "type": "event"
    },
    {
      "inputs": [],
      "name": "reportCount",
      "outputs": [
        {
          "internalType": "uint256",
          "name": "",
          "type": "uint256"
        }
      ],
      "stateMutability": "view",
      "type": "function",
      "constant": true
    },
    {
      "inputs": [
        {
          "internalType": "uint256",
          "name": "",
          "type": "uint256"
        }
      ],
      "name": "reports",
      "outputs": [
        {
          "internalType": "uint256",
          "name": "id",
          "type": "uint256"
        },
        {
          "internalType": "string",
          "name": "date",
          "type": "string"
        },
        {
          "internalType": "string",
          "name": "reportHash",
          "type": "string"
        },
        {
          "internalType": "address",
          "name": "auditor",
          "type": "address"
        }
      ],
      "stateMutability": "view",
      "type": "function",
      "constant": true
    },
    {
      "inputs": [
        {
          "internalType": "string",
          "name": "_date",
          "type": "string"
        },
        {
          "internalType": "string",
          "name": "_reportHash",
          "type": "string"
        }
      ],
      "name": "certifyReport",
      "outputs": [],
      "stateMutability": "nonpayable",
      "type": "function"
    },
    {
      "inputs": [
        {
          "internalType": "uint256",
          "name": "_id",
          "type": "uint256"
        }
      ],
      "name": "getReport",
      "outputs": [
        {
          "internalType": "uint256",
          "name": "",
          "type": "uint256"
        },
        {
          "internalType": "string",
          "name": "",
          "type": "string"
        },
        {
          "internalType": "string",
          "name": "",
          "type": "string"
        },
        {
          "internalType": "address",
          "name": "",
          "type": "address"
        }
      ],
      "stateMutability": "view",
      "type": "function",
      "constant": true
    }
  ],
  "bytecode": "0x608060405234801561001057600080fd5b506107b3806100206000396000f3fe608060405234801561001057600080fd5b506004361061004c5760003560e01c8063185c6f84146100515780634e7f9b191461006d5780638a4f839e14610090578063c942adf7146100a5575b600080fd5b61005a60015481565b6040519081526020015b60405180910390f35b61008061007b366004610462565b6100b8565b60405161006494939291906104c1565b6100a361009e3660046105a9565b610241565b005b6100806100b3366004610462565b610320565b6000606080600080600080878152602001908152602001600020604051806080016040529081600082015481526020016001820180546100f79061060d565b80601f01602080910402602001604051908101604052809291908181526020018280546101239061060d565b80156101705780601f1061014557610100808354040283529160200191610170565b820191906000526020600020905b81548152906001019060200180831161015357829003601f168201915b505050505081526020016002820180546101899061060d565b80601f01602080910402602001604051908101604052809291908181526020018280546101b59061060d565b80156102025780601f106101d757610100808354040283529160200191610202565b820191906000526020600020905b8154815290600101906020018083116101e557829003601f168201915b5050509183525050600391909101546001600160a01b031660209182015281519082015160408301516060909301519199909850919650945092505050565b6001805490600061025183610647565b9091555050604080516080810182526001805480835260208084018781528486018790523360608601526000928352908290529390208251815592519192919082019061029e90826106bd565b50604082015160028201906102b390826106bd565b5060609190910151600390910180546001600160a01b0319166001600160a01b039092169190911790556001546040517f7834a46024be3c62b85beb00b47c66af09719cf1696c62aa5f59458ef66a8b1791610314918590859033906104c1565b60405180910390a15050565b600060208190529081526040902080546001820180549192916103429061060d565b80601f016020809104026020016040519081016040528092919081815260200182805461036e9061060d565b80156103bb5780601f10610390576101008083540402835291602001916103bb565b820191906000526020600020905b81548152906001019060200180831161039e57829003601f168201915b5050505050908060020180546103d09061060d565b80601f01602080910402602001604051908101604052809291908181526020018280546103fc9061060d565b80156104495780601f1061041e57610100808354040283529160200191610449565b820191906000526020600020905b81548152906001019060200180831161042c57829003601f168201915b505050600390930154919250506001600160a01b031684565b60006020828403121561047457600080fd5b5035919050565b6000815180845260005b818110156104a157602081850181015186830182015201610485565b506000602082860101526020601f19601f83011685010191505092915050565b8481526080602082015260006104da608083018661047b565b82810360408401526104ec818661047b565b91505060018060a01b038316606083015295945050505050565b634e487b7160e01b600052604160045260246000fd5b600082601f83011261052d57600080fd5b813567ffffffffffffffff8082111561054857610548610506565b604051601f8301601f19908116603f0116810190828211818310171561057057610570610506565b8160405283815286602085880101111561058957600080fd5b836020870160208301376000602085830101528094505050505092915050565b600080604083850312156105bc57600080fd5b823567ffffffffffffffff808211156105d457600080fd5b6105e08683870161051c565b935060208501359150808211156105f657600080fd5b506106038582860161051c565b9150509250929050565b600181811c9082168061062157607f821691505b60208210810361064157634e487b7160e01b600052602260045260246000fd5b50919050565b60006001820161066757634e487b7160e01b600052601160045260246000fd5b5060010190565b601f8211156106b857600081815260208120601f850160051c810160208610156106955750805b601f850160051c820191505b818110156106b4578281556001016106a1565b5050505b505050565b815167ffffffffffffffff8111156106d7576106d7610506565b6106eb816106e5845461060d565b8461066e565b602080601f83116001811461072057600084156107085750858301515b600019600386901b1c1916600185901b1785556106b4565b600085815260208120601f198616915b8281101561074f57888601518255948401946001909101908401610730565b508582101561076d5787850151600019600388901b60f8161c191681555b5050505050600190811b0190555056fea264697066735822122089a12cd262938044ae4ec59bf7761275647f668c6609ca7cbc5fcde9c76c079b64736f6c63430008150033",
  "immutableReferences": {},
  "source": "// SPDX-License-Identifier: MIT\r\npragma solidity ^0.8.0;\r\n\r\ncontract AuditTraceability {\r\n    struct Report {\r\n        uint256 id;\r\n        string date;\r\n        string reportHash;\r\n        address auditor;\r\n    }\r\n\r\n    mapping(uint256 => Report) public reports;\r\n    uint256 public reportCount;\r\n\r\n    event ReportCertified(uint256 id, string date, string reportHash, address auditor);\r\n\r\n    function certifyReport(string memory _date, string memory _reportHash) public {\r\n        reportCount++;\r\n        reports[reportCount] = Report(reportCount, _date, _reportHash, msg.sender);\r\n        emit ReportCertified(reportCount, _date, _reportHash, msg.sender);\r\n    }\r\n\r\n    function getReport(uint256 _id) public view returns (uint256, string memory, string memory, address) {\r\n        Report memory r = reports[_id];\r\n        return (r.id, r.date, r.reportHash, r.auditor);\r\n    }\r\n}\r\n",
  "sourcePath": "C:\\Users\\Administrator\\Documents\\projet pfa\\contracts\\AuditTraceability.sol",
  "compiler": {
    "name": "solc",
    "version": "0.8.21+commit.d9974bed.Emscripten.clang"
  },
  "schemaVersion": "3.4.16",
  "updatedAt": "2025-12-24T22:30:46.796Z",
  "networkType": "ethereum",
  "devdoc": {
    "kind": "dev",
    "methods": {},
    "version": 1
  },
  "userdoc": {
    "kind": "user",
    "methods": {},
    "version": 1
  }
}