{
  "contractName": "ReportStorage",
  "abi": [
    {
      "anonymous": false,
      "inputs": [
        {
          "indexed": false,
          "internalType": "string",
          "name": "reportId",
          "type": "string"
        },
        {
          "indexed": false,
          "internalType": "string",
          "name": "date",
          "type": "string"
        },
        {
          "indexed": false,
          "internalType": "string",
          "name": "hashValue",
          "type": "string"
        },
        {
          "indexed": false,
          "internalType": "uint256",
          "name": "index",
          "type": "uint256"
        }
      ],
      "name": "ReportStored",
      "type": "event"
    },
    {
      "inputs": [
        {
          "internalType": "uint256",
          "name": "",
          "type": "uint256"
        }
      ],
      "name": "reports",
      "outputs": [
        {
          "internalType": "string",
          "name": "reportId",
          "type": "string"
        },
        {
          "internalType": "string",
          "name": "date",
          "type": "string"
        },
        {
          "internalType": "string",
          "name": "hashValue",
          "type": "string"
        }
      ],
      "stateMutability": "view",
      "type": "function"
    },
    {
      "inputs": [
        {
          "internalType": "string",
          "name": "_reportId",
          "type": "string"
        },
        {
          "internalType": "string",
          "name": "_date",
          "type": "string"
        },
        {
          "internalType": "string",
          "name": "_hashValue",
          "type": "string"
        }
      ],
      "name": "storeReport",
      "outputs": [],
      "stateMutability": "nonpayable",
      "type": "function"
    },
    {
      "inputs": [
        {
          "internalType": "uint256",
          "name": "index",
          "type": "uint256"
        }
      ],
      "name": "getReport",
      "outputs": [
        {
          "internalType": "string",
          "name": "",
          "type": "string"
        },
        {
          "internalType": "string",
          "name": "",
          "type": "string"
        },
        {
          "internalType": "string",
          "name": "",
          "type": "string"
        }
      ],
      "stateMutability": "view",
      "type": "function"
    },
    {
      "inputs": [],
      "name": "getReportsCount",
      "outputs": [
        {
          "internalType": "uint256",
          "name": "",
          "type": "uint256"
        }
      ],
      "stateMutability": "view",
      "type": "function"
    }
  ],
  "bytecode": "0x608060405234801561001057600080fd5b50610938806100206000396000f3fe608060405234801561001057600080fd5b506004361061004c5760003560e01c806327d33f72146100515780634e7f9b19146100675780635b26d10b14610089578063c942adf71461009e575b600080fd5b6000546040519081526020015b60405180910390f35b61007a610075366004610564565b6100b1565b60405161005e939291906105c3565b61009c6100973660046106a9565b6102b5565b005b61007a6100ac366004610564565b610392565b606080606060008085815481106100ca576100ca610731565b90600052602060002090600302016040518060600160405290816000820180546100f390610747565b80601f016020809104026020016040519081016040528092919081815260200182805461011f90610747565b801561016c5780601f106101415761010080835404028352916020019161016c565b820191906000526020600020905b81548152906001019060200180831161014f57829003601f168201915b5050505050815260200160018201805461018590610747565b80601f01602080910402602001604051908101604052809291908181526020018280546101b190610747565b80156101fe5780601f106101d3576101008083540402835291602001916101fe565b820191906000526020600020905b8154815290600101906020018083116101e157829003601f168201915b5050505050815260200160028201805461021790610747565b80601f016020809104026020016040519081016040528092919081815260200182805461024390610747565b80156102905780601f1061026557610100808354040283529160200191610290565b820191906000526020600020905b81548152906001019060200180831161027357829003601f168201915b5050509190925250508151602083015160409093015190989297509550909350505050565b604080516060810182528481526020810184905290810182905260008054600181018255908052815160039091027f290decd9548b62a8d60345a988386fc84ba6bc95484008f6362f93160ef3e5630190819061031290826107d0565b506020820151600182019061032790826107d0565b506040820151600282019061033c90826107d0565b5050507f2b8536774860dcd9e7776881e80bbdb8a41fb680e060c6a23105f23a05483be283838360016000805490506103759190610890565b60405161038594939291906108b7565b60405180910390a1505050565b600081815481106103a257600080fd5b90600052602060002090600302016000915090508060000180546103c590610747565b80601f01602080910402602001604051908101604052809291908181526020018280546103f190610747565b801561043e5780601f106104135761010080835404028352916020019161043e565b820191906000526020600020905b81548152906001019060200180831161042157829003601f168201915b50505050509080600101805461045390610747565b80601f016020809104026020016040519081016040528092919081815260200182805461047f90610747565b80156104cc5780601f106104a1576101008083540402835291602001916104cc565b820191906000526020600020905b8154815290600101906020018083116104af57829003601f168201915b5050505050908060020180546104e190610747565b80601f016020809104026020016040519081016040528092919081815260200182805461050d90610747565b801561055a5780601f1061052f5761010080835404028352916020019161055a565b820191906000526020600020905b81548152906001019060200180831161053d57829003601f168201915b5050505050905083565b60006020828403121561057657600080fd5b5035919050565b6000815180845260005b818110156105a357602081850181015186830182015201610587565b506000602082860101526020601f19601f83011685010191505092915050565b6060815260006105d6606083018661057d565b82810360208401526105e8818661057d565b905082810360408401526105fc818561057d565b9695505050505050565b634e487b7160e01b600052604160045260246000fd5b600082601f83011261062d57600080fd5b813567ffffffffffffffff8082111561064857610648610606565b604051601f8301601f19908116603f0116810190828211818310171561067057610670610606565b8160405283815286602085880101111561068957600080fd5b836020870160208301376000602085830101528094505050505092915050565b6000806000606084860312156106be57600080fd5b833567ffffffffffffffff808211156106d657600080fd5b6106e28783880161061c565b945060208601359150808211156106f857600080fd5b6107048783880161061c565b9350604086013591508082111561071a57600080fd5b506107278682870161061c565b9150509250925092565b634e487b7160e01b600052603260045260246000fd5b600181811c9082168061075b57607f821691505b60208210810361077b57634e487b7160e01b600052602260045260246000fd5b50919050565b601f8211156107cb57600081815260208120601f850160051c810160208610156107a85750805b601f850160051c820191505b818110156107c7578281556001016107b4565b5050505b505050565b815167ffffffffffffffff8111156107ea576107ea610606565b6107fe816107f88454610747565b84610781565b602080601f831160018114610833576000841561081b5750858301515b600019600386901b1c1916600185901b1785556107c7565b600085815260208120601f198616915b8281101561086257888601518255948401946001909101908401610843565b50858210156108805787850151600019600388901b60f8161c191681555b5050505050600190811b01905550565b818103818111156108b157634e487b7160e01b600052601160045260246000fd5b92915050565b6080815260006108ca608083018761057d565b82810360208401526108dc818761057d565b905082810360408401526108f0818661057d565b9150508260608301529594505050505056fea2646970667358221220db442e5a908c690e8e88d4e1780bfee08d6a067261aca2d3c0f90819a5caa2fa64736f6c63430008150033",
  "immutableReferences": {},
  "source": "\r\n// SPDX-License-Identifier: MIT\r\npragma solidity ^0.8.0;\r\n\r\ncontract ReportStorage {\r\n    struct Report {\r\n        string reportId;\r\n        string date;\r\n        string hashValue;\r\n    }\r\n\r\n    Report[] public reports;\r\n\r\n    event ReportStored(\r\n        string reportId,\r\n        string date,\r\n        string hashValue,\r\n        uint256 index\r\n    );\r\n\r\n    function storeReport(\r\n        string memory _reportId,\r\n        string memory _date,\r\n        string memory _hashValue\r\n    ) public {\r\n        reports.push(Report(_reportId, _date, _hashValue));\r\n\r\n        emit ReportStored(_reportId, _date, _hashValue, reports.length - 1);\r\n    }\r\n\r\n    function getReport(uint256 index)\r\n        public\r\n        view\r\n        returns (string memory, string memory, string memory)\r\n    {\r\n        Report memory r = reports[index];\r\n        return (r.reportId, r.date, r.hashValue);\r\n    }\r\n\r\n    function getReportsCount() public view returns (uint256) {\r\n        return reports.length;\r\n    }\r\n}\r\n",
  "sourcePath": "C:\\Users\\Administrator\\Documents\\projet pfa\\contracts\\ReportStorage.sol",
  "compiler": {
    "name": "solc",
    "version": "0.8.21+commit.d9974bed.Emscripten.clang"
  },
  "schemaVersion": "3.4.16",
  "updatedAt": "2025-12-24T22:30:38.269Z",
  "devdoc": {
    "kind": "dev",
    "methods": {},
    "version": 1
  },
  "userdoc": {
    "kind": "user",
    "methods": {},
    "version": 1
  }
}