{
  "contractName": "ReportStorage",
  "abi": [
    {
      "anonymous": false,
      "inputs": [
        {
          "indexed": false,
          "internalType": "string",
          "name": "reportId",
          "type": "string"
        },
        {
          "indexed": false,
          "internalType": "string",
          "name": "date",
          "type": "string"
        },
        {
          "indexed": false,
          "internalType": "string",
          "name": "hashValue",
          "type": "string"
        },
        {
          "indexed": false,
          "internalType": "uint256",
          "name": "index",
          "type": "uint256"
        }
      ],
      "name": "ReportStored",
      "type": "event"
    },
    {
      "inputs": [
        {
          "internalType": "uint256",
          "name": "",
          "type": "uint256"
        }
      ],
      "name": "reports",
      "outputs": [
        {
          "internalType": "string",
          "name": "reportId",
          "type": "string"
        },
        {
          "internalType": "string",
          "name": "date",
          "type": "string"
        },
        {
          "internalType": "string",
          "name": "hashValue",
          "type": "string"
        }
      ],
      "stateMutability": "view",
      "type": "function"
    },
    {
      "inputs": [
        {
          "internalType": "string",
          "name": "_reportId",
          "type": "string"
        },
        {
          "internalType": "string",
          "name": "_date",
          "type": "string"
        },
        {
          "internalType": "string",
          "name": "_hashValue",
          "type": "string"
        }
      ],
      "name": "storeReport",
      "outputs": [],
      "stateMutability": "nonpayable",
      "type": "function"
    },
    {
      "inputs": [
        {
          "internalType": "uint256",
          "name": "index",
          "type": "uint256"
        }
      ],
      "name": "getReport",
      "outputs": [
        {
          "internalType": "string",
          "name": "",
          "type": "string"
        },
        {
          "internalType": "string",
          "name": "",
          "type": "string"
        },
        {
          "internalType": "string",
          "name": "",
          "type": "string"
        }
      ],
      "stateMutability": "view",
      "type": "function"
    },
    {
      "inputs": [],
      "name": "getReportsCount",
      "outputs": [
        {
          "internalType": "uint256",
          "name": "",
          "type": "uint256"
        }
      ],
      "stateMutability": "view",
      "type": "function"
    }
  ],
  "bytecode": "0x608060405234801561000f575f80fd5b50610caf8061001d5f395ff3fe608060405234801561000f575f80fd5b506004361061004a575f3560e01c806327d33f721461004e5780634e7f9b191461006c5780635b26d10b1461009e578063c942adf7146100ba575b5f80fd5b6100566100ec565b60405161006391906105a8565b60405180910390f35b610086600480360381019061008191906105fc565b6100f7565b604051610095939291906106b1565b60405180910390f35b6100b860048036038101906100b39190610827565b6102f4565b005b6100d460048036038101906100cf91906105fc565b6103ca565b6040516100e3939291906106b1565b60405180910390f35b5f8080549050905090565b60608060605f8085815481106101105761010f6108cb565b5b905f5260205f2090600302016040518060600160405290815f8201805461013690610925565b80601f016020809104026020016040519081016040528092919081815260200182805461016290610925565b80156101ad5780601f10610184576101008083540402835291602001916101ad565b820191905f5260205f20905b81548152906001019060200180831161019057829003601f168201915b505050505081526020016001820180546101c690610925565b80601f01602080910402602001604051908101604052809291908181526020018280546101f290610925565b801561023d5780601f106102145761010080835404028352916020019161023d565b820191905f5260205f20905b81548152906001019060200180831161022057829003601f168201915b5050505050815260200160028201805461025690610925565b80601f016020809104026020016040519081016040528092919081815260200182805461028290610925565b80156102cd5780601f106102a4576101008083540402835291602001916102cd565b820191905f5260205f20905b8154815290600101906020018083116102b057829003601f168201915b5050505050815250509050805f015181602001518260400151935093509350509193909250565b5f604051806060016040528085815260200184815260200183815250908060018154018082558091505060019003905f5260205f2090600302015f909190919091505f820151815f0190816103499190610af2565b50602082015181600101908161035f9190610af2565b5060408201518160020190816103759190610af2565b5050507f2b8536774860dcd9e7776881e80bbdb8a41fb680e060c6a23105f23a05483be283838360015f805490506103ad9190610bee565b6040516103bd9493929190610c21565b60405180910390a1505050565b5f81815481106103d8575f80fd5b905f5260205f2090600302015f91509050805f0180546103f790610925565b80601f016020809104026020016040519081016040528092919081815260200182805461042390610925565b801561046e5780601f106104455761010080835404028352916020019161046e565b820191905f5260205f20905b81548152906001019060200180831161045157829003601f168201915b50505050509080600101805461048390610925565b80601f01602080910402602001604051908101604052809291908181526020018280546104af90610925565b80156104fa5780601f106104d1576101008083540402835291602001916104fa565b820191905f5260205f20905b8154815290600101906020018083116104dd57829003601f168201915b50505050509080600201805461050f90610925565b80601f016020809104026020016040519081016040528092919081815260200182805461053b90610925565b80156105865780601f1061055d57610100808354040283529160200191610586565b820191905f5260205f20905b81548152906001019060200180831161056957829003601f168201915b5050505050905083565b5f819050919050565b6105a281610590565b82525050565b5f6020820190506105bb5f830184610599565b92915050565b5f604051905090565b5f80fd5b5f80fd5b6105db81610590565b81146105e5575f80fd5b50565b5f813590506105f6816105d2565b92915050565b5f60208284031215610611576106106105ca565b5b5f61061e848285016105e8565b91505092915050565b5f81519050919050565b5f82825260208201905092915050565b5f5b8381101561065e578082015181840152602081019050610643565b5f8484015250505050565b5f601f19601f8301169050919050565b5f61068382610627565b61068d8185610631565b935061069d818560208601610641565b6106a681610669565b840191505092915050565b5f6060820190508181035f8301526106c98186610679565b905081810360208301526106dd8185610679565b905081810360408301526106f18184610679565b9050949350505050565b5f80fd5b5f80fd5b7f4e487b71000000000000000000000000000000000000000000000000000000005f52604160045260245ffd5b61073982610669565b810181811067ffffffffffffffff8211171561075857610757610703565b5b80604052505050565b5f61076a6105c1565b90506107768282610730565b919050565b5f67ffffffffffffffff82111561079557610794610703565b5b61079e82610669565b9050602081019050919050565b828183375f83830152505050565b5f6107cb6107c68461077b565b610761565b9050828152602081018484840111156107e7576107e66106ff565b5b6107f28482856107ab565b509392505050565b5f82601f83011261080e5761080d6106fb565b5b813561081e8482602086016107b9565b91505092915050565b5f805f6060848603121561083e5761083d6105ca565b5b5f84013567ffffffffffffffff81111561085b5761085a6105ce565b5b610867868287016107fa565b935050602084013567ffffffffffffffff811115610888576108876105ce565b5b610894868287016107fa565b925050604084013567ffffffffffffffff8111156108b5576108b46105ce565b5b6108c1868287016107fa565b9150509250925092565b7f4e487b71000000000000000000000000000000000000000000000000000000005f52603260045260245ffd5b7f4e487b71000000000000000000000000000000000000000000000000000000005f52602260045260245ffd5b5f600282049050600182168061093c57607f821691505b60208210810361094f5761094e6108f8565b5b50919050565b5f819050815f5260205f209050919050565b5f6020601f8301049050919050565b5f82821b905092915050565b5f600883026109b17fffffffffffffffffffffffffffffffffffffffffffffffffffffffffffffffff82610976565b6109bb8683610976565b95508019841693508086168417925050509392505050565b5f819050919050565b5f6109f66109f16109ec84610590565b6109d3565b610590565b9050919050565b5f819050919050565b610a0f836109dc565b610a23610a1b826109fd565b848454610982565b825550505050565b5f90565b610a37610a2b565b610a42818484610a06565b505050565b5b81811015610a6557610a5a5f82610a2f565b600181019050610a48565b5050565b601f821115610aaa57610a7b81610955565b610a8484610967565b81016020851015610a93578190505b610aa7610a9f85610967565b830182610a47565b50505b505050565b5f82821c905092915050565b5f610aca5f1984600802610aaf565b1980831691505092915050565b5f610ae28383610abb565b9150826002028217905092915050565b610afb82610627565b67ffffffffffffffff811115610b1457610b13610703565b5b610b1e8254610925565b610b29828285610a69565b5f60209050601f831160018114610b5a575f8415610b48578287015190505b610b528582610ad7565b865550610bb9565b601f198416610b6886610955565b5f5b82811015610b8f57848901518255600182019150602085019450602081019050610b6a565b86831015610bac5784890151610ba8601f891682610abb565b8355505b6001600288020188555050505b505050505050565b7f4e487b71000000000000000000000000000000000000000000000000000000005f52601160045260245ffd5b5f610bf882610590565b9150610c0383610590565b9250828203905081811115610c1b57610c1a610bc1565b5b92915050565b5f6080820190508181035f830152610c398187610679565b90508181036020830152610c4d8186610679565b90508181036040830152610c618185610679565b9050610c706060830184610599565b9594505050505056fea2646970667358221220e2e90b245e1e4714eeded9e298459a05466f7f7d66c1942c4b8bb63ab4f5fde964736f6c63430008150033",
  "immutableReferences": {},
  "source": "\r\n// SPDX-License-Identifier: MIT\r\npragma solidity ^0.8.0;\r\n\r\ncontract ReportStorage {\r\n    struct Report {\r\n        string reportId;\r\n        string date;\r\n        string hashValue;\r\n    }\r\n\r\n    Report[] public reports;\r\n\r\n    event ReportStored(\r\n        string reportId,\r\n        string date,\r\n        string hashValue,\r\n        uint256 index\r\n    );\r\n\r\n    function storeReport(\r\n        string memory _reportId,\r\n        string memory _date,\r\n        string memory _hashValue\r\n    ) public {\r\n        reports.push(Report(_reportId, _date, _hashValue));\r\n\r\n        emit ReportStored(_reportId, _date, _hashValue, reports.length - 1);\r\n    }\r\n\r\n    function getReport(uint256 index)\r\n        public\r\n        view\r\n        returns (string memory, string memory, string memory)\r\n    {\r\n        Report memory r = reports[index];\r\n        return (r.reportId, r.date, r.hashValue);\r\n    }\r\n\r\n    function getReportsCount() public view returns (uint256) {\r\n        return reports.length;\r\n    }\r\n}\r\n",
  "sourcePath": "C:\\Users\\hp\\systeme-intelligent-audit-qualite-et-tracabilite-blockchain\\contracts\\ReportStorage.sol",
  "compiler": {
    "name": "solc",
    "version": "0.8.21+commit.d9974bed.Emscripten.clang"
  },
  "schemaVersion": "3.4.16",
  "updatedAt": "2025-12-04T15:23:18.897Z",
  "devdoc": {
    "kind": "dev",
    "methods": {},
    "version": 1
  },
  "userdoc": {
    "kind": "user",
    "methods": {},
    "version": 1
  }
}